:100000000C945B010C948C010C948C010C948C016D
:100010000C948C010C948C010C948C010C948C012C
:100020000C948C010C948C010C948C010C948C011C
:100030000C948C010C948C010C948C010C948C010C
:100040000C948C010C94120F0C948C010C948C0168
:100050000C948C010C948C010C948C010C94B618AB
:100060000C948C010C94821B0C94B81B0C948C0186
:100070000C948C010C948C010C948C010C948C01CC
:100080000C94400F0C948C010C948C010C948C01FA
:100090000C948C010C948C010C948C010C948C01AC
:1000A0000C948C010C948C010C946E0F0C948C01AC
:1000B0000C948C010C948C010C948C010C949C0F6E
:1000C0000C948C010C948C010C948C010C948C017C
:1000D0000C948C010C948C010C948C010C948C016C
:1000E0000C948C0187198A1979197D198319C11902
:1000F0008E19921998199C19A019A619AA19AE1946
:10010000C119B419B819BC190C948E190C948C0A25
:100110000C94A6190C94EC1B0C947B1A0C94871964
:100120000C945E060C946A040C9475040C94701A7A
:100130000C949C190C94891A0C948A190C94471CE1
:100140000C9491010C94740A0C94B4190C94F51548
:100150000C94AA190C94BC190C9479190C941D1BBD
:100160000C9498190C94A2010C941D050C948E010A
:100170000C9492190C94C1190C94A0190C94E21BC4
:100180000C94B8190C949D1A0C948F010C94851042
:100190000C9483190C94FB1A0C9407050C94AE195B
:1001A0000C9490010C947D1900000A0B02090C0DAF
:1001B0000E0807030401000000000000000000001A
:1001C000000000000000000000000000000000002F
:1001D00000000000121110000000000000000000EC
:1001E000000000000000000000000000000001020C
:1001F0001020200808102040102040800201020139
:1002000008040201010204081020408080402010F0
:100210000804020180040201804020100804020149
:1002200008040201010204081020408001020408B1
:10023000102040800505050507050808080802028A
:1002400002020A0A08080404040401010101010170
:1002500001010303030303030303040707070C0C53
:100260000C0C0C0C0C0C020202020606060606061A
:1002700006060B0B0B0B0B0B0B0B000022002500D3
:1002800028002B002E00310034000201000005017F
:1002900008010B0100002100240027002A002D0086
:1002A0003000330001010000040107010A01740A53
:1002B0008510EC1B8C0A11241FBECFEFD1E2DEBFEC
:1002C000CDBF00E00CBF12E0A0E0B2E0E6EDF4E448
:1002D00000E00BBF02C007900D92A23DB107D9F715
:1002E00021E1A2EDB2E001C01D92A531B207E1F714
:1002F00012E0C4EBD2E000E006C022970109FE0143
:100300000BBF0E945C1DCE3AD10780E00807A9F719
:100310000E94301C0C9459220C94000008950895FA
:100320000895CF93DF93EC0182E192E09983888373
:10033000CE0109960E947D108A819B81DF91CF9129
:100340000C94431CCF93DF93EC010E949101CE01EA
:10035000DF91CF910C94431C8F929F92AF92BF92EA
:10036000CF92DF92EF92FF920F931F93CF93DF9381
:10037000EC016B015A0182E192E0998388831B8230
:100380001A8280E290E09D838C831F821E820E94ED
:100390003F1C9B838A83CE0109960E94CA0FD60117
:1003A000ED90FC90F6018081918124813581820F4E
:1003B000931FE816F90609F44AC08E819F818C01CB
:1003C0000F5F1F4F80179107C8F52C813D812017C3
:1003D000310720F581962817390700F58A809B8020
:1003E0009D838C830E943F1C9B838A8320E030E0A6
:1003F0008E819F812817390770F4EA81FB81E20F13
:10040000F31F309729F0D401A20FB31F8C91808382
:100410002F5F3F4FEDCFC4010E94431C8E819F810F
:100420008017910770F4EA81FB81E80FF91F30977C
:1004300019F0D7012C9120830196F2CF08171907E4
:1004400010F41F830E83BFEFEB1AFB0AABCF88E0DB
:10045000F501DE01199601900D928A95E1F7DF9181
:10046000CF911F910F91FF90EF90DF90CF90BF90B1
:10047000AF909F908F9008950895FC01E058F54F3C
:100480001182108232967183608332965183408349
:100490003296318320830895CF93DF93DC01A058F7
:1004A000B54FED91FC911197E032F1050CF043C08E
:1004B000C4E5CE9F9001CF9F300D1124280F391F26
:1004C000E901C15BDF4F79836883229659834883B2
:1004D00040E050E0E901C40FD51F198218824E5F39
:1004E0005F4F40345105B1F744E54E9F90014F9F57
:1004F000300D1124280F391FE901C05CDF4F19822C
:100500001882229687EE93E0998388832296198237
:1005100018822296198218822496198218822296AD
:100520001982188222961882259618823196ED93A8
:10053000FC9381E001C080E0DF91CF910895FC0140
:10054000E058F54F0190F081E02D20E030E02E17CB
:100550003F07BCF4DC01A15BBF4F0D90BC91A02D07
:10056000A617B70749F4DC01AF5ABF4F0D90BC91F5
:10057000A02DA417B50741F02F5F3F4F8C5A9F4F16
:10058000E6CF8FEF9FEF0895C901089508958A5A25
:100590009F4FFC018081918108958F929F92AF922D
:1005A000BF92CF92DF92EF92FF920F931F93CF9360
:1005B000DF931F921F92CDB7DEB78C0149832A8348
:1005C000660F771FF801EA5AFF4FE080F180EE0CCA
:1005D000FF1CF801CF01801B910B8E159F0514F4B1
:1005E0001192F8CF8981F801E60FF71F81838A8184
:1005F0008083680184E5C80ED11C60E0F60180812B
:100600000E94FB195801F2E5AF0EB11C480180E5CC
:10061000880E911C1E141F047CF4E1E0EE1AF10810
:10062000F801EE0DFF1D208141E0F5016081F4012C
:1006300080810E94311AEECF61E0F60180810F9037
:100640000F90DF91CF911F910F91FF90EF90DF906E
:10065000CF90BF90AF909F908F900C94FB1977FD37
:1006600010C0FC01EA5AFF4F2081318162177307E5
:1006700044F4442311F020E001C021E04CE00C944C
:10068000CD02089577FD0FC0FC01EA5AFF4F20818B
:100690003181621773073CF44830510520F4242F50
:1006A0004BE00C94CD02089577FD0FC0FC01EA5A8F
:1006B000FF4F20813181621773073CF440315105AF
:1006C00020F4242F4AE00C94CD020895CF92DF92BB
:1006D000EF92FF920F931F93CF93DF937C018B01D7
:1006E00077FD21C0FC01EA5AFF4F80819181681794
:1006F0007907CCF46B0123E0CC0CDD1C2A95E1F7E3
:10070000C0E0D0E0CE0CDF1CF601EC0FFD1F108A1C
:100710004C2F4F5F20E0B801C7010E94CD02219607
:10072000C830D10589F7DF91CF911F910F91FF90CC
:10073000EF90DF90CF9008954F925F927F928F92CB
:100740009F92AF92BF92CF92DF92EF92FF920F9360
:100750001F93CF93DF931F92CDB7DEB72C01762E78
:100760007C0180E5E80EF11CF70160837183420192
:10077000F2E58F0E911CF401518340836201F4E590
:10078000CF0ED11CF60131832083C8010197089751
:1007900010F008E010E05201F6E5AF0EB11CF501D3
:1007A0001183008361E0872D79830E94C21961E083
:1007B000F40180810E94C21961E0F60180810E94EB
:1007C000C21961E0F60180810E94FB19F701708275
:1007D0007981718380E090E0F201E80FF91F108ABF
:1007E000019680349105C1F700E010E0F5018081A9
:1007F000918108171907F4F420E04FE0B801C20115
:100800000E94CD0247E050E0B801C2010E944203BD
:1008100020E049E0B801C2010E94CD02B801C20146
:100820000E94660341E0B801C2010E942F030F5FDE
:100830001F4FDCCF0F90DF91CF911F910F91FF9051
:10084000EF90DF90CF90BF90AF909F908F907F9070
:100850005F904F9008950F93CF93DF9377FD36C04D
:10086000FC01EA5AFF4F0190F081E02D6E177F07DF
:100870006CF54830510550F52830310538F5DB016D
:1008800033E0AA0FBB1F3A95E1F7E0E8F0E002C0C1
:10089000F595E7952A95E2F7ED01C40FD51FC80F2E
:1008A000D91F002319F028892E2B03C0E095288931
:1008B0002E23288BFC01EA0FFB1FE40FF51F4F5F6F
:1008C0002089DF91CF910F910C94CD02DF91CF91D0
:1008D0000F910895CF93DF93EC016CE172E00E94D9
:1008E000DD1CCE01DF91CF910895AF92BF92CF92E0
:1008F000DF92EF92FF920F931F93CF93DF9300D07D
:1009000000D0CDB7DEB76C017C0181E1E80EF11CAF
:10091000C7010E94C7025C0100E010E089E0C80E38
:10092000D11C0A151B0514F540E0B801C7010E944F
:100930002F034FE050E0B801C7010E945403B801F3
:10094000C7010E94660364E272E0CE0101960E9434
:10095000DD1CBE016F5F7F4FC6010E945910CE01A2
:1009600001960E946F1C0F5F1F4FDBCF26960FB6BC
:10097000F894DEBF0FBECDBFDF91CF911F910F91D5
:10098000FF90EF90DF90CF90BF90AF900895EF92DF
:10099000FF920F931F93CF93DF93CDB7DEB76F977F
:1009A0000FB6F894DEBF0FBECDBF7C015F934F93AF
:1009B0007F936F9321E332E03F932F938E010F5F7C
:1009C0001F4F1F930F930E94891FB801CE014A96B3
:1009D0000E94DD1CBE01665E7F4FC70109960E9422
:1009E0005910CE014A960E946F1C0FB6F894DEBFD4
:1009F0000FBECDBF6F960FB6F894DEBF0FBECDBF52
:100A0000DF91CF911F910F91FF90EF900895CF93B9
:100A1000DF93EC0186E492E099838883FE01EB5832
:100A2000FF4F6081718141E0CE0141960E942F030A
:100A3000CE01DF91CF910C949101CF93DF93EC0124
:100A40000E940705CE01DF91CF910C94431CAF9219
:100A5000BF92CF92DF92EF92FF920F931F93CF93AB
:100A6000DF93CDB7DEB7CF55D1090FB6F894DEBF0F
:100A70000FBECDBF7C016B018A0188E0FA01DE0167
:100A8000119601900D928A95E1F7DB0114968D91F4
:100A90009C9115976F969FAF8EAF6F9780966D96CE
:100AA0009FAF8EAF6D970E943F1C6B969FAF8EAF2E
:100AB0006B9780E090E06F962EAD3FAD6F978217F9
:100AC000930788F4D601ED91FC91E80FF91F6B961E
:100AD000AEADBFAD6B97A80FB91F109711F0208175
:100AE0002C930196E8CFAE014F5F5F4FBE01675A6E
:100AF0007F4FC7010E94AC016B968EAD9FAD6B9787
:100B00000E94431CCE0101960E947D1086E492E073
:100B1000F70191838083C70141960E94C602D601E6
:100B200014968D919C911597089709F070C088E0F4
:100B3000F801D701199601900D928A95E1F7D60137
:100B4000ED91FC911197608170E0F701E759FF4F3B
:100B500071836083ED91FC911197418150E0F70121
:100B6000E559FF4F51834083ED91FC91119722810C
:100B700030E0F701E359FF4F31832083ED91FC9181
:100B8000038110E0F701E159FF4F11830083570102
:100B9000B5E7AB0EB11CF601A081B18114968C9122
:100BA00090E0D5018D939C935701B1E7AB0EB11C3A
:100BB000A081B18115968C9190E0F501918380839D
:100BC0005701F3E7AF0EB11CF601A081B181169673
:100BD0008C9190E0D5018D939C930190F081E02D54
:100BE0008781F701E958FF4F811102C0108202C0CE
:100BF00081E08083CE0101960E949C0388E5FE017E
:100C00003196D701519601900D928A95E1F7C15A1C
:100C1000DF4F0FB6F894DEBF0FBECDBFDF91CF918F
:100C20001F910F91FF90EF90DF90CF90BF90AF900A
:100C30000895EF92FF920F931F93CF93DF93CDB759
:100C4000DEB76F970FB6F894DEBF0FBECDBF7C0145
:100C5000222319F00E94C70424C05F934F937F930F
:100C60006F9381E392E09F938F938E010F5F1F4FED
:100C70001F930F930E94891FB801CE014A960E94CC
:100C8000DD1CBE01665E7F4FC70109960E945910A8
:100C9000CE014A960E946F1C0FB6F894DEBF0FBEBD
:100CA000CDBF6F960FB6F894DEBF0FBECDBFDF91FC
:100CB000CF911F910F91FF90EF900895CF92DF9207
:100CC000EF92FF920F93CF93DF93EC01FC01E95871
:100CD000FF4F8081662341F1882341F16E0183E754
:100CE000C80ED11CF601208131817E01F1E7EF0EA3
:100CF000F11CF7014081518134966081718101E0DE
:100D0000CE0141960E942B04F60140815181F701EA
:100D100060817181CE01DF91CF910F91FF90EF90B3
:100D2000DF90CF900C94C7048823C1F26E01F3E7E3
:100D3000CF0ED11CF601208131817E01F1E7EF0E4B
:100D4000F11CF7014081518134966081718100E08E
:100D5000CE0141960E942B04F60140815181F7019A
:100D60006081718120E0CE01DF91CF910F91FF90E2
:100D7000EF90DF90CF900C941906EF92FF920F93B3
:100D80001F93CF93DF931F921F92CDB7DEB78C01D5
:100D9000CC56D54F88819981C459DA409A8389838A
:100DA000F8011182108280E2E82EF12CF382E282B7
:100DB0001582148280E490E00E943F1CF801918328
:100DC000808310861782F286E1861486138680E47B
:100DD00090E00E943F1CF801908787831786168653
:100DE000F18AE08A138A128A80E490E00E943F1C14
:100DF000F80197878687168A158AF08EE78A128E01
:100E0000118E80E490E00E943F1CF801968B858B48
:100E10007801FEE1EF0EF11CC7010E943C0288E858
:100E20009AE0FE013C96D70101900D920197E1F7FF
:100E3000F801EA55F54F89819A8191838083F80101
:100E4000148E158E0F900F90DF91CF911F910F91FF
:100E5000FF90EF900895CF92DF92EF92FF920F9361
:100E60001F93CF93DF93EC017B01898D9A8D8C01C9
:100E70000F5F1F4F8017910708F043C04F89588DAF
:100E80004017510750F581964817590730F5CD881E
:100E9000DE88988F8F8B880F991F0E943F1C9E8B36
:100EA0008D8B498D5A8DF60120E030E024173507EF
:100EB00089F0AD89BE89B901660F771FA60FB71FEC
:100EC000109721F0608171816D937C932F5F3F4F6C
:100ED0003296ECCFC6010E94431C898D9A8D9C01ED
:100EE000220F331F8017910778F4ED89FE89E20FF6
:100EF000F31F309711F0F182E08201962E5F3F4F91
:100F0000F1CF0817190710F41A8F098FDF91CF91CD
:100F10001F910F91FF90EF90DF90CF900895CF92A7
:100F2000DF92EF92FF920F931F93CF93DF93EC0129
:100F30008B017A018C819D818617970708F045C047
:100F40008A819B818617970748F59B01205E3F4F5A
:100F50008217930718F5C880D9803B832A83C9017B
:100F6000880F991F0E943F1C88839983FC01D6013A
:100F700020E030E04C815D812417350760F4309724
:100F800029F04D915C911197518340832F5F3F4F22
:100F900032961296EFCFC6010E94431C8C819D8130
:100FA0009C01220F331F8017910790F4E881F9818B
:100FB000E20FF31F309729F0D7014D915C915183D7
:100FC000408301962E5F3F4FEECF6817790710F4EC
:100FD0001D830C83DF91CF911F910F91FF90EF90B4
:100FE000DF90CF900895AF92BF92CF92DF92EF92B1
:100FF000FF920F931F93CF93DF931F921F92CDB752
:10100000DEB78C016B015A017C012EE1E20EF11C6E
:10101000C7010E949F029A838983019661F4A5010A
:10102000B601C7010E944C02A501B601C7010E948A
:101030009F029A838983F801638574856F5F7F4F70
:10104000AE014F5F5F4FC80107960E948F070F9058
:101050000F90DF91CF911F910F91FF90EF90DF9054
:10106000CF90BF90AF900895AF92BF92CF92DF9292
:10107000EF92FF920F931F93CF93DF931F921F92D4
:10108000CDB7DEB78C016B015A017C012EE1E20E77
:10109000F11CC7010E949F029A838983019661F423
:1010A000A501B601C7010E944C02A501B601C70106
:1010B0000E949F029A838983F801648175816F5F22
:1010C0007F4FAE014F5F5F4FC8010E948F070F90A7
:1010D0000F90DF91CF911F910F91FF90EF90DF90D4
:1010E000CF90BF90AF9008950895EF92FF920F9325
:1010F0001F93CF93DF937C0100E010E0C0E0D0E0CD
:10110000F7012481358180819181C217D30740F492
:10111000800F911F0E946F1C21960A5F1F4FF0CF16
:10112000DF91CF911F910F91FF90EF900C94431C92
:10113000FC01808191810C94431CCF92DF92EF924D
:10114000FF920F931F93CF93DF93EC017B018C8170
:101150009D818C010F5F1F4F8017910708F046C0DB
:101160004A815B814017510750F58196481759070E
:1011700030F5C880D9809B838A83880F991F0E948D
:101180003F1C99838883F60120E030E04C815D812B
:101190002417350788F4A881B981A901440F551F88
:1011A000A40FB51F109721F0408151814D935C939E
:1011B0002F5F3F4F3296EACFC6010E94431C8C81BD
:1011C0009D819C01220F331F8017910790F4E881C5
:1011D000F981E20FF31F309729F0D7014D915C910F
:1011E0005183408301962E5F3F4FEECF08171907BA
:1011F00010F41D830C83DF91CF911F910F91FF900D
:10120000EF90DF90CF9008950F931F93CF93DF93CC
:10121000EC018B01FB01848195819D838C838096F9
:101220009B838A83880F991F0E943F1C9983888320
:1012300080E090E02C813D8182179307A0F4F801B3
:10124000A081B1819C01220F331FA20FB31FE8813F
:10125000F981E20FF31F309721F02D913C913183FA
:1012600020830196E7CFDF91CF911F910F910895D1
:101270006F927F928F92AF92CF92EF920F931F93C4
:10128000CF93DF93CDB7DEB7AA970FB6F894DEBF42
:101290000FBECDBF1DA21CA200E210E01FA30EA333
:1012A00019A618A680E490E00E943F1C9DA38CA381
:1012B00044E050E063E070E082ED92E00E945B0B5E
:1012C0009A838983BE016F5F7F4FCE0184960E940F
:1012D0009D081E8E1D8E18A30F8F1AA219A280E4DE
:1012E00090E00E943F1C9E8F8D8F46E050E065E0AD
:1012F00070E082ED92E00E945B0B9A838983BE01CD
:101300006F5F7F4FCE014D960E949D081F8A1E8AF7
:10131000198F088F1B8E1A8E80E490E00E943F1C6C
:101320009F8B8E8B48E050E067E070E082ED92E0AA
:101330000E945B0B9A838983BE016F5F7F4FCE0152
:1013400046960E949D08188A1F861A8B098B1C8A54
:101350001B8A80E490E00E943F1C988B8F874AE0B4
:1013600050E069E070E082ED92E00E945B0B9A83AE
:101370008983BE016F5F7F4FCE010F960E949D084B
:10138000BE01635E7F4FCE0101960E940409BE013B
:101390006C5D7F4FCE0108960E940409AE014F5F3D
:1013A0005F4FBE01685F7F4F82ED92E00E94AB0C01
:1013B0003C01CE0108960E949808CE0101960E9439
:1013C0009808BE016A5E7F4FCE0101960E94040913
:1013D000BE01635E7F4FCE0108960E940409AE01F4
:1013E0004F5F5F4FBE01685F7F4F82ED92E00E94CA
:1013F000AB0CCE0108960E949808CE0101960E947F
:101400009808BE01615F7F4FCE0101960E940409DA
:10141000BE016A5E7F4FCE0108960E940409AE01AC
:101420004F5F5F4FBE01685F7F4F82ED92E00E9489
:10143000AB0CCE0108960E949808CE0101960E943E
:101440009808BE016C5D7F4FCE0101960E94040991
:10145000BE01615F7F4FCE0108960E940409AE0174
:101460004F5F5F4FBE01685F7F4F82ED92E00E9449
:10147000AB0CCE0108960E949808CE0101960E94FE
:10148000980881E08F9388248394AA24A394C12C84
:10149000EE24E39403E024E042E0B30182ED92E025
:1014A0000E94490DCE010F960E949808CE014696E3
:1014B0000E949808CE014D960E949808CE0184960D
:1014C0000E9498080F90AA960FB6F894DEBF0FBE40
:1014D000CDBFDF91CF911F910F91EF90CF90AF9043
:1014E0008F907F906F900895CF92DF92EF920F933D
:1014F000A2E0CA2ED12CE12C01E02AE230E049E240
:1015000050E068E270E082ED92E00E94D10A0F9113
:10151000EF90DF90CF90089580E79DE00E947508DE
:101520008091690D90916A0D0E94431C81E69DE0B7
:101530000C947D100F931F93CF93DF93CDB7DEB73D
:10154000C858DA400FB6F894DEBF0FBECDBF8C018D
:10155000FC01E357F54F2081318132974081518161
:10156000329760817181CE0101960E943D0288E828
:101570009AE0FE013196D80101900D920197E1F7B2
:10158000F801EB55F54F11821082C857D54F0FB6B1
:10159000F894DEBF0FBECDBFDF91CF911F910F91A9
:1015A00008952F923F924F925F926F927F928F9207
:1015B0009F92AF92BF92CF92DF92EF92FF920F93E2
:1015C0001F93CF93DF93CDB7DEB72A970FB6F8946A
:1015D000DEBF0FBECDBF5C014B012A011901EA86B7
:1015E00009870E943C02F501E857F54F108275010A
:1015F00081E7E81A85EFF80AC7010E94CA0F850142
:101600000956154FF8011182108280E2682E712C64
:10161000738262821582148280E490E00E943F1CF3
:10162000F80191838083095F1F4FF80111821082B6
:10163000738262821582148280EC90E00E943F1CCB
:10164000F8019183808375979182808232965182CE
:10165000408232963182208296014A856985CE0188
:1016600001960E94DF0F88E0FE013196D7010190BC
:101670000D928A95E1F7CE0101960E947D10C50179
:101680000E949A0A2A960FB6F894DEBF0FBECDBF0D
:10169000DF91CF911F910F91FF90EF90DF90CF904E
:1016A000BF90AF909F908F907F906F905F904F9082
:1016B0003F902F900895862F942F0895FC018081EC
:1016C00091810C94431CCF92DF92EF92FF920F9383
:1016D0001F93CF93DF93EC017B018C819D818C0163
:1016E0000F5F1F4F80179107C8F52A813B81201794
:1016F000310720F581962817390700F5C880D98071
:101700009B838A830E943F1C9983888320E030E07A
:101710008C819D812817390770F4E881F981E20FE7
:10172000F31F309729F0D601A20FB31F8C9180834D
:101730002F5F3F4FEDCFC6010E94431C8C819D81DE
:101740008017910770F4E881F981E80FF91F30974D
:1017500019F0D7012C9120830196F2CF08171907B1
:1017600010F41D830C83DF91CF911F910F91FF9097
:10177000EF90DF90CF9008950F931F93CF93DF9357
:10178000EC018B01FB01848195819D838C83809684
:101790009B838A830E943F1C9983888380E090E02A
:1017A0002C813D818217930778F4F801A081B181E3
:1017B000A80FB91FE881F981E80FF91F309711F0E0
:1017C0002C9120830196ECCFDF91CF911F910F9147
:1017D00008956F927F928F929F92AF92BF92CF9215
:1017E000DF92EF92FF920F931F93CF93DF93CDB7CA
:1017F000DEB7AE970FB6F894DEBF0FBECDBF7C014B
:101800006B015A01FC01EB55F54F808191818E01EE
:101810000F5F1F4F861797078CF460E572E0C801D1
:101820000E94DD1CA80160E070E0C7018157954F60
:101830000E94F10FC8010E946F1C73C082E192E008
:101840009A838983BA016E5F7F4FCE0103960E940F
:10185000BC0B88E0F5013996DE011A9601900D92D5
:101860008A95E1F7CC0CDD1CF701E956F54F0190A4
:10187000F081E02DEC0DFD1DB801808191810E9469
:101880002B07C8010E949101612C712CC12CD12C15
:1018900057018EE5A81A85EFB80A4701E2E68E1ACD
:1018A000E5EF9E0AF501808191818C159D0590F0F0
:1018B000F40180819181B801860D971D0E94431D1E
:1018C000C8010E946F1CFFEFCF1ADF0A86E0680E86
:1018D000711CE8CF8AA58F9389A58F9385EA92E042
:1018E0009F938F931F930F930E94891FCE01899618
:1018F0000E946F1CB801CE0189960E94DD1CBE01BA
:10190000675D7F4FC7018157954F0E945910CE01E7
:1019100089960E946F1C0F900F900F900F900F9060
:101920000F90AE960FB6F894DEBF0FBECDBFDF911D
:10193000CF911F910F91FF90EF90DF90CF90BF90CC
:10194000AF909F908F907F906F900895FC01808161
:1019500091810C94431CAF92BF92CF92DF92EF9291
:10196000FF920F931F93CF93DF93CDB7DEB7C85A83
:10197000DA400FB6F894DEBF0FBECDBF5B016A013F
:101980008C010B55154FF80121812F9320812F9346
:101990002DB73EB728583A400FB6F8943EBF0FBE59
:1019A0002DBFADB7BEB7119628E83AE0FC01019013
:1019B0000D9221503040D9F7CE0101960E94BD060C
:1019C000F80180819181019691838083F501E08007
:1019D000F1800FB6F894DEBF0FBECDBFF5012481B4
:1019E0003581220F331F80819181820F931FE8166A
:1019F000F90669F0F701418150E0608170E0CE01A5
:101A000001960E943408F2E0EF0EF11CE7CFF601D8
:101A1000E080F180F60124813581220F331F80811F
:101A20009181820F931FE816F90669F0F701418151
:101A300050E0608170E0CE0101960E94F307F2E071
:101A4000EF0EF11CE7CFF801008111818E899F898B
:101A50000E94431C8F8598890E94431CCE010896E2
:101A60000E94A60CCE0101960E94A60CC801C85582
:101A7000D54F0FB6F894DEBF0FBECDBFDF91CF912B
:101A80001F910F91FF90EF90DF90CF90BF90AF909C
:101A900008954F925F926F927F928F92AF92CF9202
:101AA000EF920F93CF93DF93CDB7DEB7CE59D10925
:101AB0000FB6F894DEBF0FBECDBF3C012B01C85658
:101AC000DF4F4883C859D040C756DF4F2883C959D4
:101AD000D040C656DF4F0883CA59D040C556DF4FA5
:101AE000E882CB59D040C456DF4FC882CC59D04091
:101AF000C356DF4FA882CD59D040C256DF4F8882EF
:101B0000CE59D040CF56DF4F19821882C159D040EC
:101B100080E290E0CD56DF4F99838883C359D0404F
:101B2000CB56DF4F19821882C559D0400E943F1C06
:101B3000CF56DF4F99838883C159D040BE01685684
:101B40007F4FCE018F569F4F0E94630BBE01675699
:101B50007F4FCE018F569F4F0E94630BBE0166568A
:101B60007F4FCE018F569F4F0E94630BBE0165567B
:101B70007F4FCE018F569F4F0E94630BBE0164566C
:101B80007F4FCE018F569F4F0E94630BBE0163565D
:101B90007F4FCE018F569F4F0E94630BBE0162564E
:101BA0007F4FCE018F569F4F0E94630BC355DF4F6F
:101BB0008881CD5AD040882319F081E0898301C003
:101BC0001982BE016F5F7F4FCE018F569F4F0E94DB
:101BD000630BF301E157F54F88E0DE01A758BF4FD3
:101BE00001900D928A95E1F7BE016F567F4FCE01AD
:101BF00086579F4F0E94BC0BAE0147585F4FBE01F6
:101C000066577F4FCE0101960E942705CE01865769
:101C10009F4F0E945E0BCE0187589F4F0E947D1000
:101C2000FE01E758FF4F82E192E081939193BE015C
:101C30006D5F7F4FCF010E94BC0B88E0FE013A969A
:101C4000A9E7B0E0AC0FBD1F199601900D928A95DF
:101C5000E1F7AE0147585F4FB201C3010E94E90BA3
:101C6000CE0187589F4F0E949101CE0101960E949C
:101C70000705CE018F569F4F0E945E0BC256DF4F65
:101C80000FB6F894DEBF0FBECDBFDF91CF910F919D
:101C9000EF90CF90AF908F907F906F905F904F902C
:101CA0000895CF92DF92EF92FF920F931F93CF93FD
:101CB000DF936C018B017A01EC01C658D24F888109
:101CC00087FF04C0FB011182108223C02CE02C9DF1
:101CD000C0012D9D900D11242881AC01420F511D92
:101CE00027FD5A952091790D30E0421753078CF467
:101CF0002881AC01420F511D27FD5A959A01FA0126
:101D0000EE0FFF1FE20FF31FE258F24F208126FD76
:101D100019C088818F5F88838CE08C9D90018D9D98
:101D2000300D11248881A901480F511D87FD5A9556
:101D30008091790D90E048175907B4F488818C3070
:101D40003CF112C02881820F911D27FD9A95FC015C
:101D5000EE0FFF1FE80FF91FE258F24F808160E09D
:101D60008F730E94FB19D5CFF80180819181049671
:101D700080349C4918F480E49CE904C0F801808117
:101D800091810496F701918380838FEF888341C00E
:101D9000F801808191814881B901640F711D47FD6F
:101DA0007A95AB01FB01EE0FFF1FE40FF51FE25820
:101DB000F24F41815281840F951FF70191838083F7
:101DC0008881A901480F511D87FD5A95FA01EE0F30
:101DD000FF1FE40FF51FE258F24F808186FF19C004
:101DE0008881280F311D87FD3A95F901EE0FFF1FFD
:101DF000E20FF31FE258F24F808161E08F73DF91B1
:101E0000CF911F910F91FF90EF90DF90CF900C94A6
:101E1000FB19DF91CF911F910F91FF90EF90DF9011
:101E2000CF9008951F920F920FB60F9211240BB608
:101E30000F922F933F934F935F936F937F938F9363
:101E40009F93AF93BF93EF93FF9348E850E064E80C
:101E500070E081E090E00E94510EFF91EF91BF9100
:101E6000AF919F918F917F916F915F914F913F9132
:101E70002F910F900BBE0F900FBE0F901F901895D3
:101E80001F920F920FB60F9211240BB60F922F9341
:101E90003F934F935F936F937F938F939F93AF93F2
:101EA000BF93EF93FF9348E950E064E970E082E06C
:101EB00090E00E94510EFF91EF91BF91AF919F91E1
:101EC0008F917F916F915F914F913F912F910F90E3
:101ED0000BBE0F900FBE0F901F9018951F920F9280
:101EE0000FB60F9211240BB60F922F933F934F937F
:101EF0005F936F937F938F939F93AF93BF93EF9372
:101F0000FF9348EA50E064EA70E083E090E00E94CA
:101F1000510EFF91EF91BF91AF919F918F917F9162
:101F20006F915F914F913F912F910F900BBE0F904A
:101F30000FBE0F901F9018951F920F920FB60F9221
:101F400011240BB60F922F933F934F935F936F9390
:101F50007F938F939F93AF93BF93EF93FF9348E249
:101F600051E064E271E080E090E00E94510EFF9148
:101F7000EF91BF91AF919F918F917F916F915F9101
:101F80004F913F912F910F900BBE0F900FBE0F906E
:101F90001F901895CF93DF93EC0181E089838883AC
:101FA0001F821E8281E090E09B838A8384E090E020
:101FB0000E94411C9D838C83DF91CF910895CF9324
:101FC000DF93EC01498368833B832A831F821E824F
:101FD00084E090E00E94411C9D838C83DF91CF912F
:101FE00008956F927F928F929F92AF92BF92CF92FD
:101FF000DF92EF92FF920F931F93CF93DF9300D066
:1020000000D0CDB7DEB78C016B014A01DC0112961E
:102010008D919C91139786179707B4F1E12CF12CC1
:10202000D80116968D919C9117978E159F0564F196
:102030003701660C771CD8011496ED91FC91159729
:10204000E60DF71D0190F081E02D0190F081E02D6B
:10205000A480B580B401CE0101960E940A1DF8014A
:10206000A481B581A60DB71DAE014F5F5F4FB601CC
:102070008D919C91F5011995CE0101960E946F1CDE
:10208000FFEFEF1AFF0ACCCF26960FB6F894DEBF0B
:102090000FBECDBFDF91CF911F910F91FF90EF90B9
:1020A000DF90CF90BF90AF909F908F907F906F9078
:1020B00008950F931F93CF93DF9300D000D0CDB737
:1020C000DEB78C01CE0101960E940A1DAE014F5F62
:1020D0005F4F62E070E0C8010E94F10FCE010196EF
:1020E0000E946F1C26960FB6F894DEBF0FBECDBFC0
:1020F000DF91CF911F910F910895FC01848195810B
:10210000009711F00C94451C08951092130E109234
:10211000140E1092170E1092190E82E090E0A0E0BB
:10212000B0E080931B0E90931C0EA0931D0EB093F5
:102130001E0E1092320E10923C0E10923B0E8DEB42
:1021400092E090933A0E8093390E10923E0E0895CD
:102150009091610E9F3F39F48EBD00000DB407FED3
:10216000FDCF8EB50895F894E0915D0EF0915E0E6E
:102170004091590E342F3095A0915F0EB091600EB2
:1021800050915A0E652F609598E02081232320837B
:102190002C9187FF02C0252B01C026232C93208180
:1021A000242B2083880F915081F70000000000004D
:1021B0000000808183238083789408958091610E4C
:1021C0008F3F39F48EBD00000DB407FEFDCF8EB5F4
:1021D0000895F894E0915F0EF091600E80819091E7
:1021E0005A0E892B8083E0915D0EF0915E0E309146
:1021F000590EA0915B0EB0915C0E5091580E432F7A
:10220000409598E080E02081232B2083880F2C913B
:10221000252309F081602081242320830000000011
:10222000915089F77894089561E0FC0184810C94C1
:10223000FB1960E0FC0184810C94FB19CF93DF93C0
:10224000EC018E81882389F08F8198859C012F5F16
:102250003F4F38872F838230924018F40E94DE105F
:10226000F3CFCE010E9414111E82DF91CF91089509
:102270000F931F93CF93DF93EB010E9400198B0103
:102280000E94DE108F3F49F00E940019601B710B05
:102290006C177D07A8F380E001C081E0DF91CF914A
:1022A0001F910F910895CF92DF92FF920F931F938A
:1022B000CF93DF9300D01F92CDB7DEB76C01F62E1F
:1022C00029833A834B835C830E941E11C6010E94BE
:1022D00019116CE271E0C6010E9438118F2D8064E3
:1022E0000E94A81008E110E05C814B813A812981AD
:1022F000DA01C901002E04C0B695A7959795879578
:102300000A94D2F729833A834B835C830E94A810F6
:102310000850110929813A814B815C81083F8FEF78
:10232000180731F7FF2029F0E8E0FE1621F08FEFC3
:1023300003C085E901C087E80E94A81010E00E9450
:10234000DE10F601828787FF04C01F3F11F01F5F78
:10235000F6CF0F900F900F900F90DF91CF911F91BC
:102360000F91FF90DF90CF9008950F931F93CF931D
:10237000DF93EC010E9400198B010E94DE108A8716
:102380008F3F49F40E940019601B710B6D32714040
:10239000A0F38FE003C08E3F39F08DE08D83CE0136
:1023A0000E94141180E001C081E0DF91CF911F9164
:1023B0000F910895CF92DF92EF92FF920F931F93A8
:1023C000CF93DF93EC0169010115110509F462C097
:1023D000C801820F931F8130924008F05DC08E814A
:1023E000882371F088819981AA81BB814817590798
:1023F0006A077B0729F48F819885C816D90610F5DE
:10240000488359836A837B838B85833039F0E9E085
:10241000440F551F661F771FEA95D1F79A01AB014C
:1024200061E1CE010E945311882319F083E08D836E
:1024300033C0CE010E94B511882371F118861F8226
:1024400081E08E838F8198858C159D0540F40E94D4
:10245000DE108F819885019698878F83F3CF67016F
:10246000E00EF11ECE14DF0431F00E94DE10F60102
:1024700081936F01F7CF8F819885800F911F988787
:102480008F832985222319F08115924018F0CE01FF
:102490000E941E1181E004C0CE010E94141180E050
:1024A000DF91CF911F910F91FF90EF90DF90CF9030
:1024B0000895EF92FF920F931F93790100E012E0CD
:1024C00020E030E00E94DA111F910F91FF90EF9011
:1024D0000895AF92BF92CF92DF92EF92FF920F9347
:1024E0001F93CF93DF931F921F92CDB7DEB78C015E
:1024F000862FF8019485992351F1DA01E12CF12C12
:10250000A12CB12CED91F0E0EB259F0164E0359515
:1025100027956A95E1F72E273F27BA2CAA24A226F1
:10252000B326F901FE2FEE27F295F07FAE26BF26E7
:1025300065E0220F331F6A95E1F7A226B326FFEF6D
:10254000EF1AFF0AE11492E0F906E1F603C0AA24AB
:10255000AA94BA2C49835A830E94A8104981E42E78
:102560005A81F52EC12CD12CF70181917F010E9457
:10257000A810FFEFCF1ADF0AC11482E0D806A1F736
:102580008B2D0E94A8108A2D0E94A8100E94DE1098
:10259000F80182878F71853039F081E18583C80128
:1025A0000E94141180E001C081E00F900F90DF9134
:1025B000CF911F910F91FF90EF90DF90CF90BF9040
:1025C000AF9008950F931F93CF93DF93EC01890190
:1025D000411551056105710511F482E132C08B8509
:1025E000833039F0E9E0440F551F661F771FEA95E5
:1025F000D1F79A01AB0168E1CE010E945311882303
:1026000011F084E01EC0A8016EEFCE010E94691295
:102610008823C1F068E572E0CE010E943811811173
:1026200002C085E10EC020E030E0A9016DE0CE01DE
:102630000E945311811104C00E94DE10882339F0DA
:1026400084E18D83CE010E94141180E004C0CE018C
:102650000E94141181E0DF91CF911F910F91089595
:10266000CF93DF93EC019C012A5F3F4F41E050E0A4
:1026700060E070E08B8D9C8D0E94A1178823A1F0F3
:102680004F89588D698D7A8D452B462B472B71F4D8
:102690004E815F81688579854F8B588F698F7A8FDE
:1026A0008C8180688C8302C080E001C081E0DF9172
:1026B000CF910895CF93DF93EC01462F6E857F85F0
:1026C000888999890E944116882341F08A8920E2ED
:1026D000829FC00111248559914F02C080E090E093
:1026E000DF91CF9108954F925F926F927F92AF9258
:1026F000BF92CF92DF92EF92FF920F931F93CF93EF
:10270000DF93EC016A017B012D81222309F457C07C
:102710008B899C89AD89BE8984179507A607B70761
:1027200008F44DC04EC08A859B85AC85BD85EB8D78
:10273000FC8DE585F0E03996AC01BD0141505109B1
:10274000610971090E2E04C07695679557954795D6
:102750000A94D2F797018601015011092109310924
:1027600004C03695279517950795EA95D2F7041773
:10277000150726073707B0F58F89988DA98DBA8D73
:102780008E839F83A887B987280139015E0186E07F
:10279000A80EB11C411451046104710461F14E8111
:1027A0005F816885798595018B8D9C8D0E947C1653
:1027B00091E0491A5108610871088111EBCF80E05E
:1027C0001FC02230C1F0C114D104E104F10409F0AA
:1027D000AACF1E821F82188619861A861B861C861F
:1027E0001D860DC0892B8A2B8B2B31F2041B150BF8
:1027F000260B370BC9CFCA86DB86EC86FD8681E0C7
:10280000DF91CF911F910F91FF90EF90DF90CF90CC
:10281000BF90AF907F906F905F904F9008950F930F
:102820001F93CF93DF93EC018D818823C9F18C81B5
:1028300087FF30C061E0CE010E945A138C010097DF
:1028400079F18D81823048F44B895C896D897E896C
:10285000F801448F558F668F778F4F89588D698D1A
:102860007A8DF801538F428F758B648BE091620EE5
:10287000F091630E309759F0B8016A5E7F4FC8013E
:1028800048961995F801808D918D938B828B8C8160
:102890008F778C83DF91CF911F910F910C94061647
:1028A00080E0DF91CF911F910F9108952F923F9279
:1028B0004F925F926F927F928F929F92AF92BF9250
:1028C000CF92DF92EF92FF920F931F93CF93DF93FC
:1028D00000D01F921F92CDB7DEB78C017B013A0169
:1028E000DC0115968C9115978130C9F414968C9162
:1028F00081FF15C082FF1BC0F80143895489658997
:10290000768982859385A485B58584179507A60762
:10291000B70769F0C8010E947313811108C081E0F4
:1029200090E0F8019383828380E090E046C16301E8
:1029300080C0D8015B968D919C915C97FC01F481DD
:10294000F150B501A40129E0769567955795479513
:102950002A95D1F7F423FD8321E09222FF2309F485
:1029600074C080E092E08819990956018C159D0584
:1029700008F45C01D8015B96ED91FC915C9716968A
:102980002D903D904D905C901997B2E02B1A310834
:1029900041085108058404C0220C331C441C551CFA
:1029A0000A94D2F786859785A089B189280E391EA9
:1029B0004A1E5B1EED812E0E311C411C511CA114C0
:1029C000F2E0BF0609F088C080910A0290910B02E4
:1029D000A0910C02B0910D0282159305A405B505D6
:1029E00059F48FEF9FEFDC0180930A0290930B0262
:1029F000A0930C02B0930D029701B201A101809146
:102A0000690E90916A0E0E94E212882309F487CF22
:102A10009EEFF91ACA18DB08F80182859385A48510
:102A2000B5858A0D9B1DA11DB11D82879387A48743
:102A3000B587D8011A968D909D90AD90BC901D974A
:102A4000C114D10409F075CF8AC08114910409F032
:102A500088CF16964D915D916D917C911997411596
:102A600051056105710559F457968D919D910D9011
:102A7000BC91A02D0097A105B10541F521C09E0193
:102A80002F5F3F4F0E947C16882309F44ECF898127
:102A90009A81AB81BC81F801238D348DF90127899E
:102AA000203129F448EF5FEF60E070E004C048EFA8
:102AB0005FEF6FEF7FE084179507A607B70730F049
:102AC000C8010E94301381114CCF29CFF8018683B1
:102AD0009783A087B18745CF8114910429F5D80148
:102AE0001A964D915D916D917C911D9753968D91A4
:102AF0009D910D90BC91A02D481759076A077B073F
:102B000098F00E940616882309F409CF20920A0241
:102B100030920B0240920C0250920D028091680E8E
:102B200081608093680E08C041E0C201B1010E943B
:102B30004116882309F4F3CEC4018559914FD7017A
:102B40009C012A0D3B1DFC01E217F30719F04D9182
:102B50004193FACFE81BF90BEE0EFF1E5BCF5396A5
:102B60008D919D910D90BC91A02DF8012481881527
:102B70009905AA05BB0538F4838A948AA58AB68A82
:102B8000206824830CC08091620E9091630E892B83
:102B900031F06114710419F02068F8012483D80120
:102BA00014968C9183FD02C0C30107C0C8010E9426
:102BB0000F14882309F4B3CEF7CF0F900F900F9026
:102BC0000F900F90DF91CF911F910F91FF90EF9099
:102BD000DF90CF90BF90AF909F908F907F906F903D
:102BE0005F904F903F902F900895CF93DF931F9267
:102BF000CDB7DEB7698341E050E0BE016F5F7F4F24
:102C00000E9456140F90DF91CF9108958091680E25
:102C1000882399F140910A0250910B0260910C02B5
:102C200070910D022BE63EE08091690E90916A0E44
:102C30000E94E212882319F14091640E5091650EB2
:102C40006091660E7091670E411551056105710521
:102C500091F02BE63EE08091690E90916A0E0E9401
:102C6000E212882361F01092640E1092650E1092A9
:102C7000660E1092670E1092680E81E0089580E053
:102C80000895CF92DF92EF92FF92CF936B017C0178
:102C9000C42F80910A0290910B02A0910C02B09176
:102CA0000D028C159D05AE05BF05D1F00E940616DC
:102CB000811102C080E01AC02BE63EE0B701A601F8
:102CC0008091690E90916A0E0E945912882391F3A7
:102CD000C0920A02D0920B02E0920C02F0920D0216
:102CE0008091680E8C2B8093680E81E0CF91FF90CD
:102CF000EF90DF90CF9008958F929F92AF92BF9206
:102D0000CF92DF92EF92FF920F931F93CF93DF93B7
:102D10008C016A017B01E901FC0181859285A38513
:102D2000B4850196A11DB11D84179507A607B707A5
:102D300010F480E058C0F801438954896589768988
:102D40008789803129F4BB27AF2D9E2D8D2D09C099
:102D5000D701C60127E0B695A795979587952A953F
:102D6000D1F74C015D01840E951EA61EB71EC5014C
:102D7000B40180900A0290900B02A0900C02B090D7
:102D80000D02681579058A059B0589F4F801878984
:102D9000803199F4DD24EE24FF24F601EE0FFF1FAD
:102DA000E559F14F80819181A0E0B0E017C040E08B
:102DB0000E9441168111EACFBCCFE894C7F8DD2408
:102DC000EE24FF24F601EE0FFF1FEE0FFF1FE55963
:102DD000F14F80819181A281B381BF7088839983F3
:102DE000AA83BB8381E0DF91CF911F910F91FF9068
:102DF000EF90DF90CF90BF90AF909F908F9008950D
:102E00004F925F926F927F928F929F92AF92BF92FA
:102E1000CF92DF92EF92FF920F931F93CF93DF93A6
:102E2000EC016A017B01280139014230510561053D
:102E3000710508F474C049855A856B857C854F5FA0
:102E40005F4F6F4F7F4F4C155D056E057F0508F492
:102E500066C08B889C88AD88BE888F89803129F4B4
:102E600077276F2D5E2D4D2D09C0B701A601E7E034
:102E70007695679557954795EA95D1F7840E951EF7
:102E8000A61EB71E40910A0250910B0260910C02DF
:102E900070910D0284169506A606B70671F48F8907
:102EA000803199F4DD24EE24FF24F601EE0FFF1F9C
:102EB000E559F14F5182408218C040E0C501B4018C
:102EC0000E9441168111EBCF2AC0E894C7F8DD2497
:102ED000EE24FF24F601EE0FFF1FEE0FFF1FE55952
:102EE000F14F40825182628273828091680E8160CC
:102EF0008093680E8A89823080F08D819E81AF81B7
:102F0000B885880D991DAA1DBB1D8093640E9093F2
:102F1000650EA093660EB093670E81E001C080E05D
:102F2000DF91CF911F910F91FF90EF90DF90CF90A5
:102F3000BF90AF909F908F907F906F905F904F90D9
:102F400008952F923F924F925F926F927F929F923D
:102F5000AF92BF92CF92DF92EF92FF920F931F93A7
:102F6000CF93DF93CDB7DEB760970FB6F894DEBF8F
:102F70000FBECDBF5C014D875E876F87788B1901CF
:102F8000D9014D905D906D907C9041145104610485
:102F9000710431F0BFEF4B1A5B0A6B0A7B0A10C059
:102FA000FC014080518062807380992493940D8548
:102FB0001E852F853889013011052105310509F05D
:102FC000912CD50119962D913D914D915C911C97B5
:102FD0002F5F3F4F4F4F5F4F29873A874B875C8763
:102FE000730162011D821E821F821886F501818590
:102FF0009285A385B4850D811E812F8138850817A0
:1030000019072A073B0708F056C029853A854B85E2
:103010005C852C153D054E055F0550F4A2E0CA2ED7
:10302000D12CE12CF12CB2E04B2E512C612C712CC7
:103030009E012F5F3F4FB701A601C5010E947C167C
:103040008823C9F149815A816B817C81D701C601EE
:103050000196A11DB11D452B462B472B19F02C01C4
:103060003D010FC0AC01BD0144195509660977093E
:103070000D851E852F853889401751076207730714
:1030800079F02D813E814F8158852F5F3F4F4F4F03
:103090005F4F2D833E834F8358876C017D01A6CF00
:1030A0000FEF1FEF2FEF3FE0B701A601C5010E9410
:1030B0000017811118C080E041C0D701C6010197F7
:1030C000A109B1098D839E83AF83B88797018601DB
:1030D000AC01BD01C5010E940017882361F3CD80BA
:1030E000DE80EF80F8844C145D046E047F0428F3C6
:1030F000D1014D915D916D917C9141155105610515
:10310000710599F4F10140825182628273829920A3
:10311000A1F0FFEF4F1A5F0A6F0A7F0AD5014D92A7
:103120005D926D927C92139708C093018201C50154
:103130000E9400178111E6CFBECF81E060960FB6E6
:10314000F894DEBF0FBECDBFDF91CF911F910F91DD
:10315000FF90EF90DF90CF90BF90AF909F907F90C7
:103160006F905F904F903F902F9008951F920F9215
:103170000FB60F9211242F933F938F939F93AF938A
:10318000BF9380916C1090916D10A0916E10B091D2
:103190006F1030916B1023E0230F2D3720F4019630
:1031A000A11DB11D05C026E8230F0296A11DB11D6A
:1031B00020936B1080936C1090936D10A0936E1001
:1031C000B0936F108091701090917110A091721057
:1031D000B09173100196A11DB11D80937010909352
:1031E0007110A0937210B0937310BF91AF919F9123
:1031F0008F913F912F910F900FBE0F901F901895B8
:103200002FB7F89460916C1070916D1080916E10D2
:1032100090916F102FBF0895789484B5826084BD1B
:1032200084B5816084BD85B5826085BD85B58160CA
:1032300085BDEEE6F0E0808181608083E1E8F0E02A
:103240001082808182608083808181608083E0E859
:10325000F0E0808181608083E1EBF0E08081846038
:103260008083E0EBF0E0808181608083E1E9F0E041
:10327000808182608083808181608083E0E9F0E0EA
:10328000808181608083E1EAF0E0808182608083D8
:10329000808181608083E0EAF0E0808181608083CA
:1032A000E1E2F1E0808182608083808181608083BF
:1032B000E0E2F1E0808181608083EAE7F0E08081F4
:1032C000846080838081826080838081816080834C
:1032D0008081806880831092C100089590E0FC0195
:1032E0003197E231F10508F04CC0EE58FF4F0C94D5
:1032F000561D809180008F7703C0809180008F7D64
:1033000080938000089580918000877FF9CF84B5F5
:103310008F7702C084B58F7D84BD08958091B00001
:103320008F7703C08091B0008F7D8093B0000895A7
:10333000809190008F7707C0809190008F7D03C0AF
:1033400080919000877F8093900008958091A000E5
:103350008F7707C08091A0008F7D03C08091A0006F
:10336000877F8093A0000895809120018F7707C008
:10337000809120018F7D03C080912001877F809301
:1033800020010895CF93DF9390E0FC01E251FE4FBE
:103390002491FC01EC5CFD4F8491882349F190E07D
:1033A000880F991FFC01EC56FD4FA591B4918658EA
:1033B0009D4FFC01C591D4919FB7611108C0F8944D
:1033C0008C91209582238C93888182230AC062305D
:1033D00051F4F8948C91322F309583238C9388810B
:1033E000822B888304C0F8948C91822B8C939FBF8E
:1033F000DF91CF9108950F931F93CF93DF931F9287
:10340000CDB7DEB7282F30E0F901E855FE4F8491A3
:10341000F901E251FE4F1491F901EC5CFD4F04916A
:103420000023C9F0882321F069830E946E19698105
:10343000E02FF0E0EE0FFF1FE658FD4FA591B4918D
:103440009FB7F8948C91611103C01095812301C03E
:10345000812B8C939FBF0F90DF91CF911F910F9184
:103460000895BF92CF92DF92EF92FF920F931F9336
:10347000CF93DF93C82ED62EB42EC7E0D0E0022F14
:1034800010E087E0E82EF12CB1100AC0F701EC1B28
:10349000FD0BB80102C075956795EA95E2F707C084
:1034A000B8010C2E02C0759567950A94E2F7617019
:1034B00077278C2D0E94FB1961E08D2D0E94FB194E
:1034C00060E08D2D0E94FB192197F0F6DF91CF91DE
:1034D0001F910F91FF90EF90DF90CF90BF900895D4
:1034E000FC01818D228D90E0805C9F4F821B9109B1
:1034F0008F7399270895FC01918D828D981731F073
:10350000828DE80FF11D858D90E008958FEF9FEF7C
:103510000895FC01918D828D981761F0828DDF01F5
:10352000A80FB11D5D968C91928D9F5F9F73928FB6
:1035300090E008958FEF9FEF089582EE9BE1892B35
:1035400041F080E090E0892B21F00E94E21B811184
:1035500025C080E090E0892B41F080E090E0892B4D
:1035600021F00E94000081111CC080E090E0892BB6
:1035700041F080E090E0892B21F00E940000811151
:1035800013C080E090E0892BA1F080E090E0892BCF
:1035900081F00E94000081110AC008950E9400007D
:1035A000D8CF0E940000E1CF0E940000EACF0C9427
:1035B00000000895FC01848DDF01A80FB11DA35AFE
:1035C000BF4F2C91848D90E001968F739927848F43
:1035D000A689B7892C93A089B1898C9180648C933A
:1035E000938D848D981306C00288F389E02D808125
:1035F0008F7D80830895CF93DF93EC01888D88239E
:10360000C9F0EA89FB89808185FD05C0A889B9894F
:103610008C9186FD0FC00FB607FCF5CF808185FF2A
:10362000F2CFA889B9898C9185FFEDCFCE010E9498
:10363000DA1AE7CFDF91CF910895CF92DF92FF9210
:103640000F931F93CF93DF931F92CDB7DEB76C011B
:10365000DC015B969C915B975C968C915C979813D0
:1036600007C05096ED91FC915197808185FD32C045
:10367000F601038D10E00F5F1F4F0F731127F02E1F
:10368000F601848DF81211C00FB607FCF9CFD601F0
:103690005096ED91FC915197808185FFF1CFC60145
:1036A00069830E94DA1A6981EBCF838DE80FF11DDF
:1036B000E35AFF4F6083D6015B960C935B9752965B
:1036C000ED91FC91539780818062808381E05896D0
:1036D0008C930DC0D6015696ED91FC91579760835F
:1036E0005096ED91FC91519780818064808381E0B8
:1036F00090E00F90DF91CF911F910F91FF90DF909D
:10370000CF9008951F920F920FB60F9211240BB60F
:103710000F922F938F939F93EF93FF93E0918410D9
:10372000F09185108081E0918A10F0918B1082FDDC
:1037300012C0908180918D108F5F8F7320918E10B9
:10374000821751F0E0918D10F0E0EC58FF4E958F0C
:1037500080938D1001C08081FF91EF919F918F9197
:103760002F910F900BBE0F900FBE0F901F901895CA
:103770001F920F920FB60F9211240BB60F922F9338
:103780003F934F935F936F937F938F939F93AF93E9
:10379000BF93EF93FF9384E790E10E94DA1AFF91C1
:1037A000EF91BF91AF919F918F917F916F915F91B9
:1037B0004F913F912F910F900BBE0F900FBE0F9026
:1037C0001F90189584E790E10E94701A21E0892BE0
:1037D00009F420E0822F089510927710109276104D
:1037E00088EE93E0A0E0B0E0809378109093791099
:1037F000A0937A10B0937B1085EC92E090937510B3
:103800008093741085EC90E09093811080938010E9
:1038100084EC90E0909383108093821080EC90E091
:10382000909385108093841081EC90E090938710A2
:103830008093861082EC90E090938910809388109A
:1038400086EC90E090938B1080938A1010928D10EC
:1038500010928E1010928F1010929010089508956B
:103860000E940C190E942F1C0E943809CDE9DAE150
:103870000E9474082097E1F30E949D1AF9CF0C94DE
:10388000601D0C94601D0C94F81D0C94F81DCF92D3
:10389000DF92EF92FF920F931F93CF93DF936C0110
:1038A0007A01EB01E60EF71E00E010E0CE15DF0511
:1038B00061F06991D601ED91FC910190F081E02DCC
:1038C000C6011995080F191FF1CFC801DF91CF91DB
:1038D0001F910F91FF90EF90DF90CF900895FC0122
:1038E000808191810C94F81DCF93DF93EC01888146
:1038F0009981009711F00E94F81D198218821D828B
:103900001C821B821A82DF91CF9108950F931F931F
:10391000CF93DF93EC018B016F5F7F4F888199819B
:103920000E94871E009731F0998388831B830A8346
:1039300081E001C080E0DF91CF911F910F91089548
:10394000CF93DF93EC0188819981892B29F08A81BB
:103950009B818617970760F4CE010E94861C8823FE
:1039600041F08C819D81892B19F4E881F9811082C5
:1039700081E0DF91CF910895EF92FF920F931F9313
:10398000CF93DF93EC017B018A01BA010E94A01C56
:10399000811104C0CE010E94741C07C01D830C83DA
:1039A000B701888199810E94821FCE01DF91CF915A
:1039B0001F910F91FF90EF900895FC0111821082EA
:1039C00013821282158214826115710559F0FB0170
:1039D00001900020E9F7AF0141505109461B570BF8
:1039E0000C94BC1C0895CF93DF93EC01FB01861768
:1039F000970761F0608171816115710529F044813B
:103A000055810E94BC1C02C00E94741CCE01DF9133
:103A1000CF910895FC0111821082138212821582C7
:103A200014820C94F31CCF93DF93DC01ED91FC9195
:103A3000EB01A881B981309711F01097C9F4109764
:103A400059F0EB012C813D81232B31F08C9190E0DA
:103A500091958195910914C0309781F0DC011496FD
:103A60008D919C911597892B49F0808190E008C039
:103A7000BD01CF01DF91CF910C94791F80E090E0E0
:103A8000DF91CF910895FC0144815581FB01248190
:103A900035814217530741F40E94131D21E0892B01
:103AA00009F020E0822F089580E00895EE0FFF1FB7
:103AB0000590F491E02D19940790F691E02D19945A
:103AC000CF93DF938230910510F482E090E0E09193
:103AD0001311F091141120E030E0A0E0B0E0309735
:103AE00039F14081518148175907B8F048175907F3
:103AF00071F482819381109729F013969C938E9391
:103B000012972CC0909314118093131127C0211584
:103B1000310531F04217530718F0A901DB0101C04C
:103B2000EF019A01BD01DF010280F381E02DD7CFC3
:103B300021153105F9F0281B390B2430310580F4AB
:103B40008A819B816115710521F0FB01938382833A
:103B500004C09093141180931311FE01329644C057
:103B6000FE01E20FF31F81939193225031093983B3
:103B700028833AC02091111130911211232B41F466
:103B800020910202309103023093121120931111FF
:103B900020910002309101022115310541F42DB729
:103BA0003EB74091040250910502241B350BE09171
:103BB0001111F0911211E217F307A0F42E1B3F0B25
:103BC0002817390778F0AC014E5F5F4F241735078F
:103BD00048F04E0F5F1F50931211409311118193C3
:103BE000919302C0E0E0F0E0CF01DF91CF91089522
:103BF000CF93DF93009709F487C0FC0132971382BB
:103C00001282C0911311D0911411209781F4208158
:103C10003181280F391F8091111190911211821753
:103C2000930779F5F0931211E09311116DC0DE0145
:103C300020E030E0AE17BF0750F412964D915C9132
:103C400013979D014115510509F1DA01F3CFB383B3
:103C5000A28340815181840F951F8A179B0771F4BD
:103C60008D919C911197840F951F0296918380836B
:103C700012968D919C911397938382832115310520
:103C800029F4F0931411E09313113EC0D901139657
:103C9000FC93EE9312974D915D91A40FB51FEA1717
:103CA000FB0779F480819181840F951F0296D901D9
:103CB00011969C938E938281938113969C938E93FD
:103CC0001297E0E0F0E08A819B81009719F0FE01F5
:103CD000EC01F9CFCE01029628813981820F931F22
:103CE00020911111309112112817390769F430977A
:103CF00029F4109214111092131102C0138212822F
:103D0000D0931211C0931111DF91CF9108956F924A
:103D10007F928F929F92AF92BF92CF92DF92EF925B
:103D2000FF920F931F93CF93DF93EC01CB0120976A
:103D300081F4DF91CF911F910F91FF90EF90DF9071
:103D4000CF90BF90AF909F908F907F906F900C948A
:103D5000601DFE01E60FF71F9E0122503109E21798
:103D6000F30708F4ACC0D9010D911C911197061707
:103D70001707B8F00530110508F49FC0A80144509A
:103D800051094617570708F498C002501109061B3D
:103D9000170B019311936D937C93CF010E94F81D33
:103DA0008CC05B01A01AB10A4E01800E911EA09139
:103DB0001311B0911411612C712C60E070E0109718
:103DC00009F449C0A815B905C9F5ED90FC90119703
:103DD000670142E0C40ED11CCA14DB0478F147012C
:103DE0008A189B08640142E0C40ED11C1296BC9054
:103DF00012971396AC91B5E0CB16D10440F0B28285
:103E0000A38391828082D9018D939C9309C00E5F18
:103E10001F4F0E0D1F1DF90111830083EB2DFA2F8B
:103E20006115710531F0DB011396FC93EE93129747
:103E300044C0F0931411E09313113FC06D917C9135
:103E400011976616770608F43B01BD0112960D9096
:103E5000BC91A02DB4CF6091111170911211681511
:103E60007905E9F468167906D0F440910002509182
:103E700001024115510541F44DB75EB7609104024E
:103E800070910502461B570BE417F507C0F4F09339
:103E90001211E0931111F901918380830EC00E94E9
:103EA000601D7C01009759F0A801BE010E94701F9F
:103EB000CE010E94F81DC70104C0CE0102C080E0FF
:103EC00090E0DF91CF911F910F91FF90EF90DF90E5
:103ED000CF90BF90AF909F908F907F906F900895FC
:103EE000FB01DC0102C001900D9241505040D8F717
:103EF0000895FB01DC018D91019080190110D9F327
:103F0000990B0895FB01DC0101900D920020E1F76F
:103F100008950F931F93CF93DF93CDB7DEB72E97FE
:103F20000FB6F894DEBF0FBECDBF0E891F8986E0A5
:103F30008C831A8309838FEF9FE79E838D83AE0165
:103F4000465E5F4F688D798DCE0101960E94B81F45
:103F5000EF81F885E00FF11F10822E960FB6F894CE
:103F6000DEBF0FBECDBFDF91CF911F910F9108959E
:103F70002F923F924F925F926F927F928F929F9279
:103F8000AF92BF92CF92DF92EF92FF920F931F9367
:103F9000CF93DF93CDB7DEB72C970FB6F894DEBF83
:103FA0000FBECDBF7C016B018A01FC011782168216
:103FB000838181FFBDC1CE0101964C01F701938140
:103FC000F60193FD859193FF81916F01882309F498
:103FD000ABC1853239F493FD859193FF81916F01D7
:103FE000853229F4B70190E00E94C921E7CF512C16
:103FF000312C20E02032A0F48B3269F030F4803292
:1040000059F0833269F420612CC08D3239F080334D
:1040100039F4216026C02260246023C0286021C0BA
:1040200027FD27C030ED380F3A3078F426FF06C060
:10403000FAE05F9E300D1124532E13C08AE0389EA3
:10404000300D1124332E20620CC08E3221F426FD57
:104050006BC1206406C08C3611F4206802C088361B
:1040600041F4F60193FD859193FF81916F018111D8
:10407000C1CF982F9F7D9554933028F40C5F1F4F2C
:10408000FFE3F9830DC0833631F0833771F0833558
:1040900009F05BC022C0F801808189830E5F1F4F49
:1040A00044244394512C540115C03801F2E06F0EA2
:1040B000711CF801A080B18026FF03C0652D70E05F
:1040C00002C06FEF7FEFC5012C870E94BE212C013B
:1040D00083012C852F77222E17C03801F2E06F0E56
:1040E000711CF801A080B18026FF03C0652D70E02F
:1040F00002C06FEF7FEFC5012C870E94B3212C0116
:104100002C852068222E830123FC1BC0832D90E088
:1041100048165906B0F4B70180E290E00E94C92128
:104120003A94F4CFF50127FC859127FE81915F0138
:10413000B70190E00E94C92131103A94F1E04F1A82
:1041400051084114510471F7E5C0843611F08936E5
:1041500039F5F80127FF07C0608171818281938161
:104160000C5F1F4F08C060817181882777FD8095A3
:10417000982F0E5F1F4F2F76B22E97FF09C0909594
:104180008095709561957F4F8F4F9F4F2068B22E1D
:104190002AE030E0A4010E94FB21A82EA81844C008
:1041A000853729F42F7EB22E2AE030E025C0F22F89
:1041B000F97FBF2E8F36C1F018F4883579F0B4C07E
:1041C000803719F0883721F0AFC02F2F2061B22E31
:1041D000B4FE0DC08B2D8460B82E09C024FF0AC028
:1041E0009F2F9660B92E06C028E030E005C020E180
:1041F00030E002C020E132E0F801B7FE07C0608184
:104200007181828193810C5F1F4F06C06081718133
:1042100080E090E00E5F1F4FA4010E94FB21A82EBA
:10422000A818FB2DFF77BF2EB6FE0BC02B2D2E7FBF
:10423000A51450F4B4FE0AC0B2FC08C02B2D2E7E8B
:1042400005C07A2C2B2D03C07A2C01C0752C24FFBD
:104250000DC0FE01EA0DF11D8081803311F4297E2D
:1042600009C022FF06C07394739404C0822F86781D
:1042700009F0739423FD13C020FF06C05A2C731459
:1042800018F4530C5718732C731468F4B70180E2B8
:1042900090E02C870E94C92173942C85F5CF73146C
:1042A00010F4371801C0312C24FF12C0B70180E38D
:1042B00090E02C870E94C9212C8522FF17C021FF86
:1042C00003C088E590E002C088E790E0B7010CC029
:1042D000822F867859F021FD02C080E201C08BE276
:1042E00027FD8DE2B70190E00E94C921A51438F4A2
:1042F000B70180E390E00E94C9215A94F7CFAA94B5
:10430000F401EA0DF11D8081B70190E00E94C921FE
:10431000A110F5CF332009F451CEB70180E290E02F
:104320000E94C9213A94F6CFF7018681978102C095
:104330008FEF9FEF2C960FB6F894DEBF0FBECDBF68
:10434000DF91CF911F910F91FF90EF90DF90CF9071
:10435000BF90AF909F908F907F906F905F904F90A5
:104360003F902F900895FC0105906150704001101E
:10437000D8F7809590958E0F9F1F0895FC0161508E
:10438000704001900110D8F7809590958E0F9F1F77
:1043900008950F931F93CF93DF93182F092FEB01ED
:1043A0008B8181FD03C08FEF9FEF20C082FF10C083
:1043B0004E815F812C813D81421753077CF4E88157
:1043C000F9819F012F5F3F4F39832883108306C0F7
:1043D000E885F985812F1995892B29F72E813F8151
:1043E0002F5F3F4F3F832E83812F902FDF91CF91FF
:1043F0001F910F910895FA01AA27283051F1203119
:1044000081F1E8946F936E7F6E5F7F4F8F4F9F4F68
:10441000AF4FB1E03ED0B4E03CD0670F781F891FAA
:104420009A1FA11D680F791F8A1F911DA11D6A0F78
:10443000711D811D911DA11D20D009F468943F912B
:104440002AE0269F11243019305D3193DEF6CF012A
:104450000895462F4770405D4193B3E00FD0C9F7F0
:10446000F6CF462F4F70405D4A3318F0495D31FD5D
:104470004052419302D0A9F7EACFB4E0A6959795B0
:10448000879577956795BA95C9F700976105710586
:1044900008959B01AC010A2E0694579547953795D0
:1044A0002795BA95C9F7620F731F841F951FA01D2A
:1044B000089512E0C4EBD2E000E006C022970109A3
:1044C000FE010BBF0E945C1DC63BD10780E00807C0
:0644D000A9F7F894FFCFEC
:1044D60000001511800001000000FFFFFFFF000033
:1044E60000008E018F0190019101A2014C454454B8
:1044F60061736B004C45445461736B20696E69743B
:10450600004C45443A2025642C2564206973204FCD
:104516004E00000000005E066A04750407051D05CE
:104526004E756D6265723E63757272656E74206E4D
:10453600756D626572206F6620626C6F636B7320A7
:10454600646566696E6564004E756D6265723A20D3
:104556002564203E20746F74616C20626C6F636BFF
:104566007300436865636B696E6720626C6F636B8B
:104576003A202564005461736B20257320696E69A7
:104586007469616C697A65640000000000F515477E
:104596001C000000001D1B471C701A891A7B1AFBA1
:0245A6001A00F9
:00000001FF
